:100A6500FEFDFBF770617373776F72643A20202087
:100A75002020202000436F646564204D616E61670E
:100A8500656D656E74002020202020636F7272658D
:100A950063742020202000202020202020657272F1
:100AA5006F7220202020200020202020202070612F
:100AB5007373202020202020002020202020207457
:100AC500727565202020202020005365744E6577BF
:100AD500576F7264456E61626C6500696E707574FE
:100AE5003A202020202020202020200052657365F8
:100AF5007450617373776F72644F4B2000496E6950
:100B0500742070617373776F72642E2E2E00657278
:100B1500726F722C74727920616761696E21006948
:100B25006E70757420616761696E20202020200039
:080B3500010203040506070894
:100FF800C104C103C100C102C101082B01030104DE
:0710080002000000013300AB
:0C0FAA00C2A1120FB6D2A1120FB6C2A154
:0E0FB6007FB07E15EF1FAC0670011E4C70F66A
:010FC400220A
:100FDF007D05AC051DEC60107E1C7F65EF1FAA061A
:080FEF0070011E4A60EC80F461
:010FF70022D7
:10101000EF1FAA0670011E4A600BE4FDEDC3947D2C
:0510200050EE0D80F709
:0110250022A8
:05107E00121083D2B442
:05108300000000002246
:0C106600D2B5D2B4121083C2B5021083C0
:0C107200C2B5D2B4121083D2B5021083B4
:08103A001210667FA0120F8B5B
:08104200C2B512107EC2B422F7
:08109100D2B512107EC2B42298
:100F8B007E08AD07C2B4121083ED30E704D2B580F2
:0E0F9B0002C2B5D2B4EF25E0FDFFDEE6C2B41F
:010FA9002225
:100F6800E4FFFE7D08D2B5C2B412107E30B5054349
:100F7800070180035307FEED146005EF25E0FEFF2F
:020F8800DDE5A5
:010F8A002244
:020EBF008D1094
:100EC1008B128A138914E4FCECC39511502F121074
:100ED1003AE5102CFF120F8B121042AB12AA13A984
:100EE100148C82758300120D27FF120F8B12104292
:0D0EF1001210727F147E001210100C80CBC6
:010EFE0022D1
:020E38008D0F1C
:100E3A008B118A128913E4FCECC3951050351210F9
:100E4A003AE50F2CFF120F8B1210421210667FA187
:100E5A00120F8B121042120F68AB11AA12A9138C2F
:100E6A0082758300EF120D54C2B4121091121072DF
:030E7A000C80C524
:010E7D002252
:100F3900C2A68F807F017E00120F4AD2A77F017E51
:010F490000A7
:100F4A00D3EF9400EE940040147D6E7C00ED1D708A
:0D0F5A00011CED4C70F7EF1F70E61E80E3E8
:010F67002267
:08109900C2A5120F39C2A72203
:07104A00E50B900A9C93FFE7
:08105100D2A5120F39C2A7223B
:101026007F381210997F0C1210997F061210997F43
:04103600010210990A
:100C9E00EF120D760D12110CFE120CEA140CD61872
:100CAE000D17210D03220CEF240CDB280D1C410D1A
:100CBE0008420CF4440CE0480D21810D0D820CF914
:100CCE00840CE58800000D24750B018049750B021C
:100CDE008044750B03803F750B41803A750B048081
:100CEE0035750B058030750B06802B750B428026F3
:100CFE00750B078021750B08801C750B0980177505
:100D0E000B438012750B2A800DE4F50B8008750BD2
:080D1E00238003750B44AF0BA9
:010D260022AA
:100D9C007590F0E59054F064F06044120FB6120FA9
:100DAC00B6E59054F064F06027E59064F0FBE4FF46
:100DBC008016EFC39404501BE59054F064F0600669
:100DCC00E590F4FD800D0FEF900A6593F59080E2AD
:100DDC007F0022E59054F0FFBFF0F8EB4DFF227F2F
:010DEC000006
:010DED0022E3
:0810A100C2A1120FB6D2A12278
:0610B100120FAAD2A122D9
:09108800120FAA120FAFD2A1222F
:0D105900E5332485FF1210997F2A02105103
:100E7E003003157FC0121099E4FBEB900ABE93FF6E
:100E8E001210510BBB10F322E53370107FC01210FD
:100E9E0099E4FBEB12104C0BBB10F8227FC0121022
:100EAE0099E4FBEB900A6993FF1210510BBB10F300
:010EBE002211
:100FC500E536B401147FC0121099E4FBEB900AE0FA
:090FD50093FF1210510BBB10F345
:010FDE0022F0
:100B3D00200308C203120E7E021088200003020C4F
:100B4D0011E53364086003020C110535E5356402C7
:100B5D007079F50B7422250BF8E6FF7437250BF829
:100B6D00E6B50709050BE50BB408E980237FC01234
:100B7D001099E4F50CE50C12104C050CE50CC39422
:100B8D001040F2121088C203C200E4F535120E7E39
:100B9D00E50B6408702E7FC0121099E4F50CE50C7E
:100BAD00900AF193FF121051050CE50CC3941040FF
:100BBD00ED1210B17B007A007937751108E4FD1242
:100BCD000EBFC200E4F535F53680361210A17FC098
:100BDD00121099E4F50CE50C900B2493FF121051B3
:100BED00050CE50CC3941040EDE4F50B7422250BB8
:100BFD00F8E6FF7437250BF8A607050BE50BB408CF
:040C0D00EBE4F533EC
:010C110022C0
:0810A900E4F590B2A1020FB6BC
:100EFF007FC0121099E4FBEB900A6993FF12105117
:100F0F000BBB10F31210B17F087822E4F608DFFC58
:100F1F00D2A0D2A1C204C203C200E4F52AF536F56D
:090F2F0035D2A2C202C201F53361
:010F38002296
:100800007B007A00792B751008E4FD120E38E53371
:1008100064086003020955300003020935FB7422A5
:100820002BF8E6FF742B2BF8E6B507060BBB08EE9A
:100830008021052AE52AB403147FC0121099E4FB35
:10084000EB12104C0BBB10F81210A980FBD28CD20B
:1008500001C203EB640870670536E5366401703940
:100860007FC0121099E4F50BE50B900ABE93FF12BE
:100870001051050BE50BC3941040ED1210B1C2A04E
:10088000D203D28CC2A2E4F50B74222BF8E4F60555
:100890000BE50BB408F302096E7FC0121099E4F562
:1008A0000BE50B900ACF93FF121051050BE50BC31C
:1008B000941040ED1210B1D200E4F53602096EE555
:1008C000226401705AE52364037054E524640170C6
:1008D0004EE52564047048E52664027042E5277001
:1008E0003EE528703AE52970367BFF7A0B7935753D
:1008F0001108FD120EBF7FC0121099E4F50BE50B35
:10090000900B0293FF121051050BE50BC39410409E
:10091000ED1210B1120FDF1210B1E4F533804F7FEA
:10092000C0121099E4F50B12104A050BE50BC394A5
:100930001040F480347FC0121099E4F50BE50B9061
:100940000B1393FF121051050BE50BC3941040EDF0
:1009500012108880197FC0121099E4F50B12104A0A
:10096000050BE50BC3941040F4121088C203E4F5A4
:0309700033D2047B
:010973002261
:100974007590FF758911758AB0758C3CD2AFD2A978
:10098400C28C120FDF1210267F80121099E4F50A30
:10099400E50A900A7A93FF121051050AE50AC394F6
:1009A4001040ED7FC0121099E4F50AE50A900A6937
:1009B40093FF121051050AE50AC3941040ED7FC954
:1009C4001210997F0F121099120FB6E4F53330010B
:1009D400051210A98002D2A1120D9C8F08E50860AF
:1009E400ED300105E4F52180E5AF08120C9E8F0976
:1009F400E50924DD601624F9600D24E924FD50CEB8
:100A0400700F120B3D80C7120EFF80C212080080C7
:100A1400BD7FC0121099E4F50AE50A900AE093FF3D
:100A2400121051050AE50AC3941040EDC204E533DF
:100A3400C3940850261210A1E4FBEBD39533500F56
:100A4400EB24C8FF1210997F2A1210510B80EB740B
:100A5400222533F8A60905330209D27533080209A1
:010A6400D2BF
:03000B00020DEEF5
:100DEE00C0E0C0D0758AB0758C3C0534E53464140F
:100DFE007033F5340521300314E52164017026D2D9
:100E0E00A2C28C758AB0758C3CF5218018E521B490
:100E1E000311C28C752100C201C202758AB0758C95
:0A0E2E003C8002D28CD0D0D0E0321C
:03000000020C12DD
:0C0C1200787FE4F6D8FD75813E020C5995
:100D2700BB010CE58229F582E5833AF583E0225081
:100D370006E92582F8E622BBFE06E92582F8E222CB
:0D0D4700E58229F582E5833AF583E49322E5
:100D5400F8BB010DE58229F582E5833AF583E8F0D5
:100D6400225006E92582C8F622BBFE05E92582C881
:020D7400F22269
:100D7600D083D082F8E4937012740193700DA3A30C
:100D860093F8740193F5828883E473740293686020
:060D9600EFA3A3A380DF20
:100C1E00020974E493A3F8E493A34003F68001F26F
:100C2E0008DFF48029E493A3F85407240CC8C333D7
:100C3E00C4540F4420C8834004F456800146F6DFA6
:100C4E00E4800B0102040810204080900FF8E47E2F
:100C5E00019360BCA3FF543F30E509541FFEE4939B
:100C6E00A360010ECF54C025E060A840B8E493A362
:100C7E00FAE493A3F8E493A3C8C582C8CAC583CA8D
:100C8E00F0A3C8C582C8CAC583CADFE9DEE780BE45
:01100F0000E0
:00000001FF
